:100000000C948F000C94B7000C94B7000C94B700BC
:100010000C94B7000C94B7000C94B7000C94B70084
:100020000C94B7000C94B7000C94B7000C94B70074
:100030000C94B7000C94B7000C94B7000C94B70064
:100040000C9471020C94B7000C9403040C943F04BC
:100050000C94B7000C94B7000C94B7000C94B70044
:100060000C94B7000C94B70008000000BE9224491D
:10007000123EABAAAA2ABECDCCCC4C3E00000080DA
:10008000BEABAAAAAA3E00000000BF000000803F4D
:100090000000000000084178D3BB4387D1133D190D
:1000A0000E3CC3BD4282AD2B3E68EC8276BED98F3A
:1000B000E1A93E4C80EFFFBE01C4FF7F3F0000007E
:1000C0000000000000070002010000030406000019
:1000D000000000000000010204081020408001021E
:1000E000040810200102040810200404040404047D
:1000F00004040202020202020303030303030000DA
:100100000000230026002900000000002500280030
:100110002B0000000000240027002A00FA0411240C
:100120001FBECFEFD8E0DEBFCDBF12E0A0E0B1E050
:10013000EEE9F0E102C005900D92A637B107D9F7BC
:1001400013E0A6E7B2E001C01D92A632B107E1F7C5
:1001500011E0CEE1D1E004C02297FE010E944908DF
:10016000CC31D107C9F70E944A050C944D080C9474
:1001700000000F931F93CF93DF93CCE9D1E08E0162
:1001800061E088810E94D901229661E0F8018081B6
:100190000E941102F1E0C03BDF0789F7CEE8D1E011
:1001A0008881229662E00E94D90181E0CC39D8078B
:1001B000B9F760E080918C010E94D90140E855E2D6
:1001C00060E070E08FE792E0DF91CF911F910F9197
:1001D0000C947A04AF92BF92CF92DF92EF92FF928B
:1001E0000F931F93CF93DF930CE911E0C0E0D0E0B1
:1001F0002FE7D22E37E0C32E780160E0F80180812E
:100200000E941102B6B080918E010E9448029B2D7F
:10021000990F982B9F3761F40E5F1F4F61E0F70134
:1002200080810E9411022196CA30D10529F73EC073
:10023000692F6D2570E080E090E00E94C0060E946A
:10024000510728E132E741E35FE30E9425060E945F
:100250008D065B01CC9EF001CD9EF00D1124E60FC2
:10026000F71FEE0FFF1FE050FF4F608171818FE796
:1002700092E00E94AC0561E08DE00E94110268EC02
:1002800070E080E090E00E94E50260E08DE00E9476
:100290001102AA0CBB1C8EE891E0A80EB91EF50154
:1002A00080810E944802892BD1F3B6CF80918C01C6
:1002B0000E944603883E93400CF046C06BE172E01A
:1002C0008FE792E00E94AC0561E08DE00E94110290
:1002D00064E670E080E090E00E94E50260E08DE07E
:1002E0000E94110264E670E080E090E00E94E50266
:1002F00061E08DE00E94110264E670E080E090E031
:100300000E94E50260E08DE00E94110264E670E068
:1003100080E090E00E94E50261E08DE00E94110221
:1003200064E670E080E090E00E94E50260E08DE02D
:10033000DF91CF911F910F91FF90EF90DF90CF90C1
:10034000BF90AF900C941102DF91CF911F910F914C
:10035000FF90EF90DF90CF90BF90AF9008958330E3
:1003600069F028F48130A1F0823011F514C0863094
:10037000B1F08730C1F08430D9F404C0809180009E
:100380008F7703C0809180008F7D809380000895D7
:1003900084B58F7702C084B58F7D84BD0895809128
:1003A000B0008F7703C08091B0008F7D8093B00044
:1003B0000895CF93DF9390E0FC01EA52FF4F449100
:1003C000FC01E651FF4F8491882341F190E0880FB2
:1003D000991FFC01EE5EFE4F25913491D901885F93
:1003E0009E4FFC0185919491C82FD92F9FB7F89407
:1003F0008C91611106C0409584238C93888184235D
:1004000008C0623041F4242F209582238C93888188
:10041000842B888302C0842B8C939FBFDF91CF9164
:1004200008950F931F93CF93DF931F92CDB7DEB73D
:10043000282F30E0F901EE53FF4F8491F901EA5281
:10044000FF4F1491F901E651FF4F04910023D1F0C1
:10045000882321F069830E94AF016981E02FF0E0D9
:10046000EE0FFF1FE85FFE4F85919491DC019FB76F
:10047000F8948C91611103C01095812301C0812BE8
:100480008C939FBF0F90DF91CF911F910F91089593
:10049000CF93DF93282F30E0F901EE53FF4F849183
:1004A000F901EA52FF4FD491F901E651FF4FC4918F
:1004B000CC2389F081110E94AF01EC2FF0E0EE0F08
:1004C000FF1FE250FF4F85919491DC018C918D23A9
:1004D00021E030E011F420E030E0C901DF91CF915C
:1004E00008951F920F920FB60F9211242F933F93EE
:1004F0008F939F93AF93BF938091760290917702F1
:10050000A0917802B091790230917E02232F2D5F65
:100510002D3720F40196A11DB11D05C0232F2A57A8
:100520000296A11DB11D20937E02809376029093C6
:100530007702A0937802B093790280917A02909129
:100540007B02A0917C02B0917D020196A11DB11D9C
:1005500080937A0290937B02A0937C02B0937D02F9
:10056000BF91AF919F918F913F912F910F900FBEAF
:100570000F901F9018950F931F939FB7F8940091B9
:100580007A0210917B0220917C0230917D0286B527
:10059000A89B06C08F3F21F00F5F1F4F2F4F3F4F8B
:1005A0009FBF322F212F102F0027080F111D211D53
:1005B000311D42E0000F111F221F331F4A95D1F752
:1005C000B801C9011F910F910895CF92DF92EF9268
:1005D000FF92CF93DF936B017C010E94BB02EB0182
:1005E0000EC00E94BB026C1B7D0B683E734038F04E
:1005F00081E0C81AD108E108F108C851DC4FC114E4
:10060000D104E104F10469F7DF91CF91FF90EF90FD
:10061000DF90CF900895789484B5826084BD84B5CE
:10062000816084BD85B5826085BD85B5816085BDED
:10063000EEE6F0E0808181608083E1E8F0E0108206
:10064000808182608083808181608083E0E8F0E047
:10065000808181608083E1EBF0E080818460808331
:10066000E0EBF0E0808181608083EAE7F0E0808168
:1006700084608083808182608083808181608083C8
:100680008081806880831092C10008958E3008F0C8
:100690008E5087702091B00140E4249F9001112476
:1006A000822B80937C0080917A00806480937A0012
:1006B00080917A0086FDFCCF2091780030917900FE
:1006C000932F80E0AC01422B9A01C9010895FC01EF
:1006D00084859585FC01E05CFF4F20813181FC0120
:1006E000EE5BFF4F80819181281B390B2F733327DD
:1006F000C9010895FC0184859585FC01E05CFF4FEC
:1007000040815181FC01EE5BFF4F20813181421716
:10071000530741F00190F081E02DE80FF91F20818F
:1007200030E002C02FEF3FEFC9010895FC0184853E
:100730009585FC01E05CFF4F40815181FC01EE5B3F
:10074000FF4F208131814217530781F0A081B18191
:10075000A80FB91F8C91208131812F5F3F4F2F73DC
:10076000332731832083282F30E002C02FEF3FEF63
:10077000C9010895FC0186859785FC01E05CFF4F67
:10078000DC01AE5BBF4F408151812D913C911197AF
:1007900042175307C1F70895CF93DF93FC01868575
:1007A0009785DC01A05CBF4F2D913C9111972F5F85
:1007B0003F4F2F733327EC01CE5BDF4F48815981C8
:1007C00024173507D9F30D90BC91A02DA80FB91FA0
:1007D0006C93A685B785A05CBF4F11963C932E9372
:1007E000A689B7892C9181E090E0058C02C0880F22
:1007F000991F0A94E2F7282B2C9381E090E0DF9177
:10080000CF91089508951F920F920FB60F92112461
:100810002F933F934F938F939F93EF93FF93409129
:10082000C600809122039091230301968F7399272C
:1008300020912403309125038217930759F0E0910A
:100840002203F0912303EE51FD4F40839093230345
:1008500080932203FF91EF919F918F914F913F9150
:100860002F910F900FBE0F901F9018958FE792E079
:100870000E946703892B11F00C94020408951F92C3
:100880000F920FB60F9211242F933F938F939F9344
:10089000EF93FF932091DE023091DF028091E0021E
:1008A0009091E1022817390731F48091C1008F7DC2
:1008B0008093C10014C0E091E002F091E102E256A1
:1008C000FD4F20818091E0029091E10201968F73AB
:1008D00099279093E1028093E0022093C600FF9154
:1008E000EF919F918F913F912F910F900FBE0F909D
:1008F0001F901895CF92DF92EF92FF92CF93DF93E4
:10090000EC016A017B01411581EE58076105710513
:10091000F9F0EC89FD8981E090E00E8C02C0880F2F
:10092000991F0A94E2F7808360E079E08DE390E01C
:10093000A70196010E94250821503109410951095A
:100940005695479537952795211580E1380798F0FA
:10095000EC89FD89108260E874E88EE190E0A701DF
:1009600096010E94250821503109410951095695E7
:10097000479537952795E889F9893083EA89FB8976
:100980002083EE89FF89408181E090E09C010A8C00
:1009900002C0220F331F0A94E2F7422B4083EE89F4
:1009A000FF8940819C010B8C02C0220F331F0A94E7
:1009B000E2F7422B4083EE89FF8940819C010C8C39
:1009C00002C0220F331F0A94E2F7422B4083EE89C4
:1009D000FF8920810D8C02C0880F991F0A94E2F7CD
:1009E000809582238083DF91CF91FF90EF90DF90FD
:1009F000CF900895109282021092810288EE93E0C7
:100A0000A0E0B0E08093830290938402A0938502DB
:100A1000B093860289E692E09093800280937F02F1
:100A200082EE92E090938C0280938B028EE992E0AA
:100A300090938E0280938D0285EC90E090939002CB
:100A400080938F0284EC90E09093920280939102C5
:100A500080EC90E0909394028093930281EC90E07C
:100A6000909396028093950286EC90E09093980282
:100A70008093970284E08093990283E080939A02A6
:100A800087E080939B0285E080939C0281E08093C5
:100A90009D0208950E940B030E94B900C6E3D4E0B2
:100AA0000E94EA002097E1F30E943604F9CFCF922A
:100AB000DF92EF92FF920F931F93CF93DF936C011E
:100AC000EB017A01E60EF71E00E010E00BC0699121
:100AD000D601ED91FC910190F081E02DC6010995C0
:100AE000080F191FCE15DF0591F7C801DF91CF91CF
:100AF0001F910F91FF90EF90DF90CF900895DB0151
:100B00000D900020E9F7AD0141505109461B570BEC
:100B1000DC01ED91FC910280F381E02D0994DC0170
:100B2000ED91FC910190F081E02D09940F931F93BA
:100B3000CF93DF93EC016DE00E948F058C016AE09A
:100B4000CE010E948F059C01200F311FC901DF914A
:100B5000CF911F910F9108950F931F93CF93DF9320
:100B6000EC010E947F058C01CE010E949605980140
:100B7000280F391FC901DF91CF911F910F9108955F
:100B80005058BB27AA270ED04DC13ED130F043D1DB
:100B900020F031F49F3F11F41EF433C10EF4E095C0
:100BA000E7FB29C1E92F4FD180F3BA17620773071A
:100BB0008407950718F071F49EF567C10EF4E0956F
:100BC0000B2EBA2FA02D0B01B90190010C01CA0107
:100BD000A0011124FF27591B99F0593F50F4503EB2
:100BE00068F11A16F040A22F232F342F4427585FA4
:100BF000F3CF469537952795A795F0405395C9F7BC
:100C00007EF41F16BA0B620B730B840BBAF0915073
:100C1000A1F0FF0FBB1F661F771F881FC2F70EC012
:100C2000BA0F621F731F841F48F4879577956795E5
:100C3000B795F7959E3F08F0B3CF9395880F08F0CE
:100C40009927EE0F9795879508950CD0EBC0E3D0C8
:100C500040F0DAD030F021F45F3F19F0CCC05111F0
:100C600015C1CFC0F0D098F39923C9F35523B1F340
:100C7000951B550BBB27AA2762177307840738F00B
:100C80009F5F5F4F220F331F441FAA1FA9F333D06A
:100C90000E2E3AF0E0E830D091505040E695001C1E
:100CA000CAF729D0FE2F27D0660F771F881FBB1FDA
:100CB000261737074807AB07B0E809F0BB0B802DB4
:100CC000BF01FF2793585F4F2AF09E3F510568F000
:100CD00092C0DCC05F3FECF3983EDCF386957795DD
:100CE0006795B795F7959F5FC9F7880F911D969502
:100CF000879597F90895E1E0660F771F881FBB1F5E
:100D0000621773078407BA0720F0621B730B840B0A
:100D1000BA0BEE1F88F7E095089504D06894B111DE
:100D2000B5C0089598D088F09F5790F0B92F9927B3
:100D3000B751A0F0D1F0660F771F881F991F1AF0E6
:100D4000BA95C9F712C0B13081F09FD0B1E00895D3
:100D50009CC0672F782F8827B85F39F0B93FCCF354
:100D6000869577956795B395D9F73EF490958095DC
:100D7000709561957F4F8F4F9F4F0895E89409C0FC
:100D800097FB3EF490958095709561957F4F8F4FBE
:100D90009F4F9923A9F0F92F96E9BB279395F695D4
:100DA000879577956795B795F111F8CFFAF4BB0F52
:100DB00011F460FF1BC06F5F7F4F8F4F9F4F16C0B6
:100DC000882311F096E911C0772321F09EE8872F40
:100DD000762F05C0662371F096E8862F70E060E0FC
:100DE0002AF09A95660F771F881FDAF7880F969575
:100DF000879597F9089597F99F6780E870E060E01C
:100E000008959FEF80EC089500240A9416161706A3
:100E100018060906089500240A94121613061406EB
:100E200005060895092E0394000C11F4882352F04E
:100E3000BB0F40F4BF2B11F460FF04C06F5F7F4F06
:100E40008F4F9F4F089557FD9058440F551F59F0ED
:100E50005F3F71F04795880F97FB991F61F09F3FA7
:100E600079F087950895121613061406551FF2CFD0
:100E70004695F1DF08C0161617061806991FF1CF20
:100E800086957105610508940895E894BB27662747
:100E90007727CB0197F908950EF0A4C0B2CF6894DC
:100EA000AACFD9DFC8F39923D1F3C6F3DF93CF9349
:100EB0001F930F93FF92C92FDD2788232AF02197D4
:100EC000660F771F881FDAF720E030E040E85FEB1D
:100ED0009FE3883920F0803E30F021968F7751DEF5
:100EE000E8E6F0E003C04DDEE5E9F0E089D08B01F3
:100EF000BE01EC01FB2E6F5771097595771F880BAA
:100F0000990B3EDF28E132E741E35FE314D0AF2DD8
:100F10009801AE01FF900F911F91CF91DF9142DEBA
:100F200081CF72DF28F077DF18F0952309F063CFC7
:100F300068CF1124ABCF87DFA0F3959FD1F3950F36
:100F400050E0551F629FF001729FBB27F00DB11D4D
:100F5000639FAA27F00DB11DAA1F649F6627B00DDD
:100F6000A11D661F829F2227B00DA11D621F739FC6
:100F7000B00DA11D621F839FA00D611D221F749FD4
:100F80003327A00D611D231F849F600D211D822F1B
:100F9000762F6A2F11249F5750408AF0E1F0882362
:100FA0004AF0EE0FFF1FBB1F661F771F881F91506F
:100FB0005040A9F79E3F510570F01DCF67CF5F3FAE
:100FC000ECF3983EDCF3869577956795B795F795A2
:100FD000E7959F5FC1F7FE2B880F911D969587952A
:100FE00097F908959F3F31F0915020F487957795B8
:100FF0006795B795880F911D9695879597F90895F0
:10100000DF93CF931F930F93FF92EF92DF927B01B9
:101010008C01689405C0DA2EEF018DDFFE01E894A3
:10102000A5912591359145915591AEF3EF01BADD2A
:10103000FE019701A801DA9479F7DF90EF90FF9015
:101040000F911F91CF91DF910895A1E21A2EAA1B53
:10105000BB1BFD010DC0AA1FBB1FEE1FFF1FA21768
:10106000B307E407F50720F0A21BB30BE40BF50B65
:10107000661F771F881F991F1A9469F760957095EE
:10108000809590959B01AC01BD01CF010895EE0FB5
:0E109000FF1F0590F491E02D0994F894FFCF16
:10109E00B101B601BB01C00152024D024802C501A9
:1010AE00CA01CF01D401D901DE01E30161025C0264
:1010BE005702E801160211020C02ED01F201F701CE
:1010CE00E801FC01010206020B0210021502E80102
:1010DE001A021F022402E401DF01DA01E801F8011D
:1010EE00F301EE0129022E023302E80138023D021D
:1010FE00420243023E023902E801BC01B701B201CD
:10110E0047024C025102E80156025B0260022A02BB
:10111E002F023402E801D001CB01C60115000C00EC
:10112E000E000F0010001100120013000200030049
:10113E000400050006000700080009000A000B0065
:10114E000131343B330031343B320031343B31001A
:10115E0032353B320031313B330031313B320031DD
:10116E00313B310032353B310031323B31003132CF
:10117E003B320031323B33004E554C4C0031363B46
:10118E00330031363B320031363B310032303B31A9
:10119E000032303B320032303B330031353B3300CE
:1011AE0031353B320031353B310031303B3100318E
:1011BE00303B320031303B330031373B3300313777
:1011CE003B320031373B310031333B310031333B61
:1011DE00320031333B330031393B330031393B324E
:1011EE000031393B310031383B310031383B320070
:1011FE0031383B330000000000CC035705670396DF
:06120E00037A03BA03009D
:00000001FF
